:020000040800F2
:100000000000022085270008C9240008CB2400082E
:10001000CD240008CF240008D124000800000000EF
:1000200000000000000000000000000091790008BE
:10003000D324000800000000317A0008D52400080D
:10004000D5270008D5270008D5270008D5270008A0
:10005000D5270008D5270008D5270008D527000890
:10006000D5270008D5270008D5270008D527000880
:10007000D5270008D5270008D5270008D527000870
:10008000D5270008D5270008D5270008D527000860
:10009000D5270008D5270008D5270008D527000850
:1000A000D5270008D5270008D5270008D527000840
:1000B000D5270008D5270008D5270008D527000830
:1000C000D5270008D5270008D5270008D527000820
:1000D000D5270008ED240008D5270008D5270008FB
:1000E000D5270008D5270008D5270008D527000800
:1000F000D5270008D5270008D5270008D5270008F0
:10010000D5270008FD240008D5270008D5270008BA
:10011000D5270008D5270008D5270008D5270008CF
:10012000D5270008D52700080D2500081D25000843
:10013000D52700080000000000000000D5270008B7
:10014000D5270008D5270008D5270008D52700089F
:10015000D52700082D2500083D250008D5270008D3
:10016000D5270008D5270008D5270008D52700087F
:10017000D5270008D5270008000000000000000077
:08018000D5270008D52700086F
:1001C00010B5054C237833B9044B13B10448AFF391
:1001D00000800123237010BDD00900200000000022
:1001E000C8F6000808B5034B1BB103490348AFF339
:1001F000008008BD00000000D4090020C8F60008F7
:1002000053B94AB9002908BF00281CBF4FF0FF317D
:100210004FF0FF3001F0DEB8ADF1080C6DE904CE0F
:1002200000F006F8DDF804E0DDE9022304B07047D1
:100230002DE9F047089D04468E46002B4DD18A4299
:10024000944669D9B2FA82F252B101FA02F3C2F1CC
:10025000200120FA01F10CFA02FC41EA030E94405D
:100260004FEA1C48210CBEFBF8F61FFA8CF708FB7E
:1002700016E341EA034306FB07F199420AD91CEB56
:10028000030306F1FF3080F01F81994240F21C8188
:10029000023E63445B1AA4B2B3FBF8F008FB1033D0
:1002A00044EA034400FB07F7A7420AD91CEB040405
:1002B00000F1FF3380F00A81A74240F207816444D5
:1002C000023840EA0640E41B00261DB1D44000235A
:1002D000C5E900433146BDE8F0878B4209D9002DBE
:1002E00000F0EF800026C5E9000130463146BDE848
:1002F000F087B3FA83F6002E4AD18B4202D38242B2
:1003000000F2F980841A61EB030301209E46002D60
:10031000E0D0C5E9004EDDE702B9FFDEB2FA82F2B5
:10032000002A40F09280A1EB0C014FEA1C471FFA13
:100330008CFE0126200CB1FBF7F307FB131140EAFA
:1003400001410EFB03F0884208D91CEB010103F1C7
:10035000FF3802D2884200F2CB804346091AA4B289
:10036000B1FBF7F007FB101144EA01440EFB00FE5D
:10037000A64508D91CEB040400F1FF3102D2A645C2
:1003800000F2BB800846A4EB0E0440EA03409CE761
:10039000C6F12007B34022FA07FC4CEA030C20FA0E
:1003A00007F401FA06F31C43F9404FEA1C4900FA2E
:1003B00006F3B1FBF9F8200C1FFA8CFE09FB1811AB
:1003C00040EA014108FB0EF0884202FA06F20BD91E
:1003D0001CEB010108F1FF3A80F08880884240F26E
:1003E0008580A8F102086144091AA4B2B1FBF9F0B2
:1003F00009FB101144EA014100FB0EFE8E4508D9AD
:100400001CEB010100F1FF346CD28E456AD9023831
:10041000614440EA0840A0FB0294A1EB0E01A14216
:10042000C846A64656D353D05DB1B3EB080261EB84
:100430000E0101FA07F722FA06F3F1401F43C5E95E
:10044000007100263146BDE8F087C2F12003D84094
:100450000CFA02FC21FA03F3914001434FEA1C47D6
:100460001FFA8CFEB3FBF7F007FB10360B0C43EAC8
:10047000064300FB0EF69E4204FA02F408D91CEB78
:10048000030300F1FF382FD29E422DD90238634476
:100490009B1B89B2B3FBF7F607FB163341EA034116
:1004A00006FB0EF38B4208D91CEB010106F1FF3865
:1004B00016D28B4214D9023E6144C91A46EA00465C
:1004C00038E72E46284605E70646E3E61846F8E6EE
:1004D0004B45A9D2B9EB020864EB0C0E0138A3E737
:1004E0004646EAE7204694E74046D1E7D0467BE718
:1004F000023B614432E7304609E76444023842E790
:1005000003685A004CBF43F0004323F000431844F3
:10051000704700BF2DE9F84329B34F1E0446154626
:100520003E464FF0000808EB060101EBD17149107F
:1005300004EBC1094846FFF7E3FF0346C800083053
:100540008F42204409D0AB4209D8FFF7D9FF0138C8
:10055000A8420AD201F10108E5E7AB4205D9884576
:1005600001D04E1EDFE74FF000094846BDE8F88392
:10057000012807D0022807D0044B00280CBF1846DA
:10058000002070470248704702487047490C000835
:100590004D0C0008510C000830B5234B83B00446C5
:1005A0008D1E3BB301A92846AFF30080E8B1019945
:1005B0002A46FFF7AFFF0146B8B1FFF7A1FF4B682E
:1005C000A064012B2CD0002B01F1040024DBFFF7E9
:1005D00097FF0023C4E913030368002B11DBFFF727
:1005E0008FFF2061002003B030BD0023092023616C
:1005F00003B030BD0D4B0E49C91AC9101846019100
:10060000D6E7C3F30360FFF7B3FF0028206114BFF0
:100610000020092003B030BD0123C4E91303DBE748
:10062000002323610520DEE70000000088FC0008AD
:1006300070FD00080368DA0710B5044606D49B076E
:1006400000F1480009D500F05BFC2368590709D583
:100650001A070ED5DB0613D510BD00F049FC236840
:100660005907F5D404F1D00000F052FC23681A07B2
:10067000F0D404F5A87000F053FC2368DB06EBD43B
:1006800004F5E870BDE8104000F08EBC092070470A
:100690000346006800B11844704700BF704700BFB0
:1006A00070B504460E46316C2046FFF775FF0546CF
:1006B00088B9326C6261236932462146012098472D
:1006C0000828F0D0072806D12846316CFFF7E6FF4E
:1006D000301D00F001FC08F0ABFF00BF2DE9F04732
:1006E0000D1DD0F80C80D0F81890074614460FCD99
:1006F000ADF5727D0DF10C0CACE80F000FCDACE840
:100700000F000FCDACE80F0095E80F0002AE4FF0E0
:10071000000E8CE80F00C6F800E020E0336C7B612F
:100720004FF4F07231467AA800F056FE3B697AAA7F
:10073000394650469847889B73642146CDE9006945
:1007400005463B463A460120C0470446E0B94FF40F
:10075000F0727AA9304600F03FFE082D1AD1316CB4
:100760003846FFF719FF09345FFA84FA0546002876
:10077000D4D0B36B73643A46CDE900693B464AF086
:1007800010010120C04700B1092528460DF5727DF2
:10079000BDE8F087072DF7D12046316CFFF77EFFCB
:1007A00003A800F099FB00BF406C7047F0B5CB6B1D
:1007B0000B6401F1040C0E460546BCE80F00F9B0CD
:1007C00001AC0FC4BCE80F000FC4BCE80F000FC49D
:1007D0009CE80F004FF0FF3784E80F00009706E019
:1007E0002B696A46294698470828044608D110997B
:1007F0002846FFF7D1FE0028F2D0092079B0F0BDDD
:100800006846FFF717FF062CF7D131462846FFF759
:1008100047FF00BFC160D96B82611964002219468D
:100820005CE700BF70B5C66843690B64AEB9036985
:100830000A4604460D46014602209847072805D07F
:1008400008280FD129462046FFF72AFF3046296C99
:10085000FFF724FF281D00F03FFB0122FFF73EFFBA
:1008600008F0E6FE08F0E4FEC2681AB1CA6B0A643A
:10087000002233E79AE700BF704700BF8368014654
:100880000BB1012018477047012912D009D873B95C
:100890000F2A0CD800EB820218465368009A1360A6
:1008A00070470339012994BF0120022070470220BC
:1008B00070470846704700BF00B585B00A46002360
:1008C00003A900911946FFF7DFFF039805B05DF813
:1008D00004FB00BF012912D009D873B90F2A0CD824
:1008E00000EB8200009A1268426018467047033994
:1008F000012994BF0120022070470220704708465A
:10090000704700BF10B584B0002303AC039200947D
:100910000A461946FFF7DEFF04B010BD70B5D36B71
:10092000136402F1040C05460C46BCE80F00ADF55B
:100930000E7D0DF15C0EAEE80F00BCE80F00AEE8D6
:100940000F00BCE80F00AEE80F009CE80F004FF06E
:10095000FF368EE80F00169610E0FFF7D3FF214612
:1009600016A8A847034616AA6946082083B9049B1F
:100970009847052806460CD0092809D026996846CC
:10098000FFF70AFE03466A460C2116A8002BE4D0A6
:10099000092616A8FFF74EFE30460DF50E7D70BDF8
:1009A0002DE9F04FCC6C89B01E4654F8043B0694F8
:1009B0000D46174600F00308002E79D01A0C1B04D0
:1009C00005938DF81D200223D2B204EB82048DF82A
:1009D0001C302B6DB8F1020F08BFAC6B13F0010394
:1009E0000CD005A9384600F079FB18B9082009B0E9
:1009F000BDE8F08F092009B0BDE8F08FD4F800A061
:100A0000BAF1000FEDD0019300F008030293022E1B
:100A10004AD0B4F800A0B4F802900434AB6C29F0CA
:100A2000010B0F2138469B44FFF746FF834539D819
:100A30002AF001039B44834594BF002001204FEA24
:100A4000490303F002030AF0010A43EA0A03012BF7
:100A500049D0022B32D0002BCCD1B8F1000F02D0FC
:100A6000002840F0CD800434D4F800A0BAF1000F83
:100A7000CDD105A9384600F031FB0028BAD1019B41
:100A8000002BB3D00F213846FFF716FF0E21024688
:100A90003846FFF737FF38466A4A0F21FFF732FF23
:100AA0000720A8E70020CAE7D4F804900834B5E787
:100AB0001B0205930323ADF81C308AE7236823F05B
:100AC000004BB8F1000F45D128B1029A002A5CD042
:100AD000BBF1000F74D0002B00DA04340BF1010BD2
:100AE00004EB8B04C0E7B8F1000F19D1B0B1636813
:100AF0002268991C4FEAD2723FF47CAF05F158018D
:100B00000133049100F09080201DFFF7C1FD04AB7C
:100B100001462846AFF3008000285BD10834A3E7E4
:100B20000D213846D5F82090FFF7C6FE8145F5D156
:100B3000AB6A9C42F2D12046FFF7E2FC0F2102464D
:100B40003846FFF7DFFE38462A460021FFF7DAFE77
:100B5000072050E70D213846D5F82090FFF7ACFE6E
:100B6000814501D02368B6E7AB6A9C42FAD10423E1
:100B70000022C5E90B23E318C5F828B06B6323688E
:100B8000002B59DB01230193A8E705F15803CDF8A9
:100B90000C8004F1040AB04691461E460EE0504611
:100BA0000496FFF775FD0022014604AB284609F1C3
:100BB00001090AF1040AAFF30080E0B9D945EED18A
:100BC0000D213846FFF778FE049BAC62C5E90803A7
:100BD000062010E781460D213846FFF76DFEB9F17A
:100BE000020F286225D12B46049A43F82C2F6B6202
:100BF000AC620620FFE646462368DDF80C806AE713
:100C00002046FFF77DFC04340246AC6328461446B8
:100C1000AFF3008000283FF4EDAE384622460F21A6
:100C2000FFF770FE0720E6E60D213846FFF744FE89
:100C30002862049B6B62DBE70BF1010004EB800090
:100C40007AE700BF000000000023A9E60123A7E621
:100C50000223A5E62DE9F0430646C3B015461C461F
:100C6000042900F2BF80DFE801F09E57BD2D03008C
:100C7000002C40F0B780102A00F2B4800368D80638
:100C800000F1F98020AF384600F098F9B46B39468E
:100C900000234FF0010C0CFA03F22A42204603F124
:100CA000010303D050F8042B0A600446042B01F121
:100CB0000401F0D13846B46300F076F9002043B067
:100CC000BDE8F083032C40F08D8094B204EB124316
:100CD000102B4FEA124500F2858003681F0700F1D0
:100CE000D28020AF384600F03DF9B26B07EBC5016A
:100CF00054B10B46D01A01EBC401E4001D5843F86F
:100D0000045B8B42FAD122443846B26300F008F902
:100D1000002043B0BDE8F083012C4FEA124895B2A1
:100D20005CD0052C5ED108EB0509B9F1200F59D82C
:100D3000B8F10F0F79D9A946002D40F08A80B36B26
:100D40006DB320AF4FF0000907EBC807043F03EB7A
:100D5000C50553F8041B47F8041FAB42F9D1B9F19C
:100D6000000F0FD06F464146102938BF102107EB06
:100D7000C101843903EBC90553F8040B41F8040F92
:100D8000AB42F9D1012C00F08680B8F10F0FB563AA
:100D900047D9B9F1000F02D0684600F0B9F8002039
:100DA00043B0BDE8F083ECB9806B23461FFA82FCA8
:100DB0000124371D04FA03F212EA0C0F014604D095
:100DC00051F8042B47F8232008460133102BF1D1AA
:100DD00015F40055E3D1B063284604E008EB0503A1
:100DE000102B03D9022043B0BDE8F083B8F10F0FF8
:100DF000F8D83368DA0706D5304623F0030340F805
:100E0000483B00F079F820AF384600F075F8B36B36
:100E1000002D97D11D460435B563384600F068F8BB
:100E2000BDE720A800F06CF8B3E7B9F1100F40D986
:100E3000A9F110093368D90708D523F0010330461A
:100E400043F0020340F8483B00F05EF8B9F1000FB0
:100E500032D033685A0720D4B8F10F0F25D96F4626
:100E60003846C8F1100500F057F8002DB36B7FF736
:100E70007AAF20AF68E723F01003336006F5E8701F
:100E800000F09CF8FEE623F00803036000F5A8706C
:100E900000F068F825E720AFBDE7304623F00403F3
:100EA00040F8D03B00F038F8D6E720A800F02CF846
:100EB000D5E74FF00009BDE7B8F10F0F3FF63FAFA0
:100EC00020AF384600F020F8B36B002D7FF43AAF26
:100ED000384600F015F862E700F1340191E8380077
:100EE0009C46A6464CF8045D90E8FF0FE54600BD21
:100EF00090EC210B704700BF80EC210B704700BFC6
:100F000090EC200B704700BF80EC200B704700BFB7
:100F1000D0EC200B704700BFC0EC200B704700BF27
:100F2000F0EC0201F0EC0211F0EC0221F0EC0231E5
:100F3000F0EC0241F0EC0251F0EC0261F0EC0271D5
:100F4000F0EC0281F0EC0291F0EC02A1F0EC02B1C5
:100F5000F0EC02C1F0EC02D1F0EC02E1F0EC02F1B5
:100F6000704700BFE0EC0201E0EC0211E0EC02216E
:100F7000E0EC0231E0EC0241E0EC0251E0EC026115
:100F8000E0EC0271E0EC0281E0EC0291E0EC02A105
:100F9000E0EC02B1E0EC02C1E0EC02D1E0EC02E1F5
:100FA000E0EC02F1704700BFB0FC0181B0FC0191A0
:100FB000B0FC01A1B0FC01B1704700BFA0FC0181F1
:100FC000A0FC0191A0FC01A1A0FC01B1704700BFF1
:100FD000EC4600B52DE900502DE9FF1F4FF000034E
:100FE0002DE90C0001A9FFF7E1FBDDF840E012B0AC
:100FF000704700BFEC4600B52DE900502DE9FF1FFA
:101000004FF000032DE90C0001A9FFF70BFCDDF800
:1010100040E012B0704700BFEC4600B52DE900502B
:101020002DE9FF1F4FF000032DE90C0001A9FFF788
:101030001BFCDDF840E012B0704700BFEC4600B585
:101040002DE900502DE9FF1F4FF000032DE90C00A2
:1010500001ABFFF7DFFBDDF840E012B0704700BFE7
:10106000EC4600B52DE900502DE9FF1F4FF00003BD
:101070002DE90C0001AAFFF751FCDDF840E012B0A9
:10108000704700BF027A03467AB9427AA2B141683A
:10109000013A10B44272086803220C1D1A7202024F
:1010A0005C60000E10BC1A6070470068013A1A724A
:1010B00002021A60000E7047B020704700B585B07C
:1010C000002303AA009219460C22FFF7DDFB0398C8
:1010D00005B05DF804FB00BFF0E700BF2DE9F04369
:1010E000054685B00E464FF000083046FFF7CAFFB0
:1010F000B028044600F0BA80070620D500F0F003BF
:10110000802B4DD0902B36D0A02B60D0B02B74D03C
:10111000C02B00F08B8000F0F803D02B0BD100F037
:1011200007020132052342F4002201212846FFF77D
:1011300091FD0028D9D0092005B0BDE8F0838300D7
:10114000DBB21F1D0DF10C0900231946CDF80090EC
:101150000D222846FFF798FB039BCDF80090600610
:101160004CBFDF1BFF1800230D22194628460397AA
:10117000FFF7B0FBB9E700F00D030D2BDBD003AF99
:10118000002300F00F02194600972846FFF77CFB6A
:10119000002300970D2219462846FFF79BFBA4E782
:1011A0003046FFF76FFF24022043B0F5004FC2D056
:1011B00004010023A2B219462846FFF74BFD002880
:1011C000B9D114F4004F18BF4FF001088DE7C243A6
:1011D00002F007034FF47F621A41010702F47F62B5
:1011E0004FF0000348BF42F4804219462846FFF7FB
:1011F00031FD00283FF479AF9DE7B1283BD0B228FC
:1012000000F09380B32841D000F0FC03B42B92D0BF
:1012100000F007020132012342F400221946284659
:10122000FFF718FD00283FF460AF84E7C6284AD0D6
:10123000C72854D000F0F803C02B63D0C82868D06A
:10124000C9287FF478AF3046FFF71CFF020300F097
:101250000F0002F4702201300243012105232846C9
:10126000FFF7F8FC00283FF440AF64E7B8F1000F47
:1012700018D0002060E73046FFF704FF0246002840
:101280003FF459AF10F0F003C8D054E73046FFF7F1
:10129000F9FE020300F00F03013302F470221A4337
:1012A0000123BBE703AC43460E2241460094284687
:1012B000FFF7EAFA009443460F2241462846FFF71B
:1012C00009FB404638E73046FFF7DCFE020300F03A
:1012D0000F03013302F470221A4303239EE73046C2
:1012E000FFF7D0FE024600283FF425AF10F0F003D0
:1012F0007FF421AF04212846FFF7ACFC00283FF41F
:10130000F4AE18E700F00F020132032342F420226A
:1013100084E73046FFF7B6FE00F0F00200F00F035E
:101320001032013343EA023297E700230DF10C0932
:101330000D221946CDF800902846FFF7A5FA304651
:10134000FFF7A0FE02064FF002040CD5039B00F04D
:101350007F00A040184403903046FFF793FE030639
:1013600004F10704F2D4039BCDF8009000F07F0253
:10137000A24003F501731A440023039219460D227B
:101380002846FFF7A7FAB0E610B5C26C536884B0E0
:101390004FF0030C08321C0208461B0E01A90194F1
:1013A00002928DF80CC08DF80D30FFF797FE04B057
:1013B00010BD00BF08B5FFF78FFE806C08BD00BFF1
:1013C00008B5FFF789FEC06CC379023300EB8300D8
:1013D00008BD00BF704700BF844641EA000313F018
:1013E00003036DD1403A41D351F8043B40F8043B2C
:1013F00051F8043B40F8043B51F8043B40F8043BEF
:1014000051F8043B40F8043B51F8043B40F8043BDE
:1014100051F8043B40F8043B51F8043B40F8043BCE
:1014200051F8043B40F8043B51F8043B40F8043BBE
:1014300051F8043B40F8043B51F8043B40F8043BAE
:1014400051F8043B40F8043B51F8043B40F8043B9E
:1014500051F8043B40F8043B51F8043B40F8043B8E
:1014600051F8043B40F8043B403ABDD2303211D32E
:1014700051F8043B40F8043B51F8043B40F8043B6E
:1014800051F8043B40F8043B51F8043B40F8043B5E
:10149000103AEDD20C3205D351F8043B40F8043B2E
:1014A000043AF9D2043208D0D2071CBF11F8013B2C
:1014B00000F8013B01D30B8803806046704700BFF2
:1014C000082A13D38B078DD010F003038AD0C3F101
:1014D0000403D21ADB071CBF11F8013B00F8013BE3
:1014E00080D331F8023B20F8023B7BE7043AD9D3A2
:1014F000013A11F8013B00F8013BF9D20B78037077
:101500004B7843708B788370604670470000000012
:1015100001F0FF01102A2BDB10F0070F08D010F8A4
:10152000013B013A8B422DD010F0070F42B3F6D1A8
:10153000F0B441EA012141EA014122F007047FF0C1
:1015400000070023F0E80256083C85EA010586EA18
:10155000010685FA47F5A3FA87F586FA47F6A5FA54
:1015600087F68EB9EED1F0BC01F0FF0102F0070260
:1015700032B110F8013B013A83EA010313B1F8D10B
:101580000020704701387047002D06BF35460338EC
:10159000073815F0010F07D1013015F4807F02BF25
:1015A000013015F4C03F0130F0BC0138704700BF76
:1015B000000000000000000000000000000000002B
:1015C00090F800F06DE9024520F007016FF0000C83
:1015D00010F0070491F820F040F049804FF000042B
:1015E0006FF00700D1E9002391F840F000F1080006
:1015F00082FA4CF2A4FA8CF283FA4CF3A2FA8CF33E
:101600004BBBD1E9022382FA4CF200F10800A4FAA4
:101610008CF283FA4CF3A2FA8CF3E3B9D1E90423F8
:1016200082FA4CF200F10800A4FA8CF283FA4CF32F
:10163000A2FA8CF37BB9D1E9062301F1200182FAE9
:101640004CF200F10800A4FA8CF283FA4CF3A2FAEF
:101650008CF3002BC6D0002A04BF04301A4612BAFD
:10166000B2FA82F2FDE8024500EBD2007047D1E900
:10167000002304F00305C4F100004FEAC50514F08F
:10168000040F91F840F00CFA05F562EA05021CBF60
:1016900063EA050362464FF00004A9E781F00041C8
:1016A00002E000BF83F0004330B54FEA41044FEA47
:1016B000430594EA050F08BF90EA020F1FBF54EAE2
:1016C000000C55EA020C7FEA645C7FEA655C00F07E
:1016D000E2804FEA5454D4EB5555B8BF6D420CDD4F
:1016E0002C4480EA020281EA030382EA000083EAD2
:1016F000010180EA020281EA0303362D88BF30BD72
:1017000011F0004F4FEA01314FF4801C4CEA1131C7
:1017100002D0404261EB410113F0004F4FEA033326
:101720004CEA133302D0524263EB430394EA050FB1
:1017300000F0A780A4F10104D5F1200E0DDB02FA20
:101740000EFC22FA05F2801841F1000103FA0EF2B4
:10175000801843FA05F359410EE0A5F120050EF17A
:10176000200E012A03FA0EFC28BF4CF0020C43FAAB
:1017700005F3C01851EBE37101F0004507D54FF0B8
:10178000000EDCF1000C7EEB00006EEB0101B1F508
:10179000801F1BD3B1F5001F0CD349085FEA30004E
:1017A0004FEA3C0C04F101044FEA445212F5800F59
:1017B00080F09A80BCF1004F08BF5FEA500C50F1F6
:1017C000000041EB045141EA050130BD5FEA4C0CD9
:1017D000404141EB0101013C28BFB1F5801FE9D236
:1017E00091F0000F04BF01460020B1FA81F308BF59
:1017F0002033A3F10B03B3F120020CDA0C3208DD25
:1018000002F1140CC2F10C0201FA0CF021FA02F1FF
:101810000CE002F11402D8BFC2F1200C01FA02F16F
:1018200020FA0CFCDCBF41EA0C019040E41AA2BF94
:1018300001EB0451294330BD6FEA04041F3C1CDA5C
:101840000C340EDC04F11404C4F1200220FA04F07C
:1018500001FA02F340EA030021FA04F345EA030126
:1018600030BDC4F10C04C4F1200220FA02F001FAE8
:1018700004F340EA0300294630BD21FA04F029466A
:1018800030BD94F0000F83F4801306BF81F4801103
:101890000134013D4EE77FEA645C18BF7FEA655C76
:1018A00029D094EA050F08BF90EA020F05D054EA48
:1018B000000C04BF1946104630BD91EA030F1EBF4D
:1018C0000021002030BD5FEA545C05D14000494151
:1018D00028BF41F0004130BD14F580043CBF01F544
:1018E000801130BD01F0004545F0FE4141F470012A
:1018F0004FF0000030BD7FEA645C1ABF1946104605
:101900007FEA655C1CBF0B46024650EA013406BF05
:1019100052EA033591EA030F41F4002130BD00BFC4
:1019200090F0000F04BF0021704730B54FF4806481
:1019300004F132044FF000054FF0000150E700BF02
:1019400090F0000F04BF0021704730B54FF4806461
:1019500004F1320410F0004548BF40424FF000014E
:101960003EE700BF42004FEAE2014FEA31014FEA91
:1019700002701FBF12F07F4393F07F4F81F06051E0
:10198000704732F07F4208BF704793F07F4F04BF2B
:1019900041F40021704730B54FF4607401F0004508
:1019A00021F000411CE700BF50EA010208BF704768
:1019B00030B54FF000050AE050EA010208BF704759
:1019C00030B511F0004502D5404261EB41014FF4C2
:1019D000806404F132045FEA915C3FF4D8AE4FF0CA
:1019E00003025FEADC0C18BF03325FEADC0C18BFAD
:1019F000033202EBDC02C2F1200300FA03FC20FAFE
:101A000002F001FA03FE40EA0E0021FA02F114444A
:101A1000BDE600BF70B54FF0FF0C4CF4E06C1CEA63
:101A200011541DBF1CEA135594EA0C0F95EA0C0FD4
:101A300000F0DEF82C4481EA030621EA4C5123EA47
:101A40004C5350EA013518BF52EA033541F4801176
:101A500043F4801338D0A0FB02CE4FF00005E1FB29
:101A600002E506F00042E0FB03E54FF00006E1FB73
:101A700003569CF0000F18BF4EF0010EA4F1FF04B6
:101A8000B6F5007F64F5407404D25FEA4E0E6D41F6
:101A900046EB060642EAC62141EA55514FEAC52007
:101AA00040EA5E504FEACE2EB4F1FD0C88BFBCF583
:101AB000E06F1ED8BEF1004F08BF5FEA500E50F134
:101AC000000041EB045170BD06F0004646EA0101FA
:101AD00040EA020081EA0301B4EB5C04C2BFD4EB2C
:101AE0000C0541EA045170BD41F480114FF0000E25
:101AF000013C00F3AB8014F1360FDEBF002001F093
:101B0000004170BDC4F10004203C35DA0C341BDC0C
:101B100004F11404C4F1200500FA05F320FA04F0DE
:101B200001FA05F240EA020001F0004221F0004112
:101B300010EBD37021FA04F642EB06015EEA430E85
:101B400008BF20EAD37070BDC4F10C04C4F12005B5
:101B500000FA04F320FA05F001FA04F240EA020068
:101B600001F0004110EBD37041F100015EEA430E39
:101B700008BF20EAD37070BDC4F1200500FA05F259
:101B80004EEA020E20FA04F301FA05F243EA0203D8
:101B900021FA04F001F0004121FA04F220EA0200E7
:101BA00000EBD3705EEA430E08BF20EAD37070BD2D
:101BB00094F0000F0FD101F00046400041EB01010D
:101BC00011F4801F08BF013CF7D041EA060195F0EF
:101BD000000F18BF704703F00046520043EB0303A9
:101BE00013F4801F08BF013DF7D043EA0603704796
:101BF00094EA0C0F0CEA135518BF95EA0C0F0CD0A1
:101C000050EA410618BF52EA4306D1D181EA0301E6
:101C100001F000414FF0000070BD50EA410606BFE0
:101C20001046194652EA430619D094EA0C0F02D125
:101C300050EA013613D195EA0C0F05D152EA03366A
:101C40001CBF104619460AD181EA030101F0004188
:101C500041F0FE4141F470014FF0000070BD41F0D1
:101C6000FE4141F4780170BD70B54FF0FF0C4CF4AB
:101C7000E06C1CEA11541DBF1CEA135594EA0C0FCA
:101C800095EA0C0F00F0A7F8A4EB050481EA030E17
:101C900052EA03354FEA013100F088804FEA0333FE
:101CA0004FF0805545EA131343EA12634FEA0222CC
:101CB00045EA111545EA10654FEA00260EF000418D
:101CC0009D4208BF964244F1FD0404F5407402D2DF
:101CD0005B084FEA3202B61A65EB03055B084FEA70
:101CE00032024FF480104FF4002CB6EB020E75EB6D
:101CF000030E22BFB61A754640EA0C005B084FEA95
:101D00003202B6EB020E75EB030E22BFB61A754611
:101D100040EA5C005B084FEA3202B6EB020E75EB5C
:101D2000030E22BFB61A754640EA9C005B084FEAD4
:101D30003202B6EB020E75EB030E22BFB61A7546E1
:101D400040EADC0055EA060E18D04FEA051545EAD0
:101D500016754FEA06164FEAC30343EA52734FEA79
:101D6000C2025FEA1C1CC0D111F4801F0BD141EAF2
:101D700000014FF000004FF0004CB6E711F4801F57
:101D800004BF01430020B4F1FD0C88BFBCF5E06F37
:101D90003FF6AFAEB5EB030C04BFB6EB020C5FEA47
:101DA000500C50F1000041EB045170BD0EF0004E9C
:101DB0004EEA113114EB5C04C2BFD4EB0C0541EACE
:101DC000045170BD41F480114FF0000E013C90E6CB
:101DD00045EA060E8DE60CEA135594EA0C0F08BF8F
:101DE00095EA0C0F3FF43BAF94EA0C0F0AD150EA8E
:101DF00001347FF434AF95EA0C0F7FF425AF104621
:101E000019462CE795EA0C0F06D152EA03353FF448
:101E1000FDAE1046194622E750EA410618BF52EAC5
:101E200043067FF4C5AE50EA41047FF40DAF52EA99
:101E300043057FF4EBAE12E74FF0FF3C06E000BF36
:101E40004FF0010C02E000BF4FF0010C4DF804CD43
:101E50004FEA410C7FEA6C5C4FEA430C18BF7FEA03
:101E60006C5C1BD001B050EA410C0CBF52EA430C31
:101E700091EA030F02BF90EA020F0020704710F1B1
:101E8000000F91EA030F58BF994208BF90422CBF40
:101E9000D8176FEAE37040F0010070474FEA410C39
:101EA0007FEA6C5C02D150EA013C07D14FEA430C57
:101EB0007FEA6C5CD6D152EA033CD3D05DF8040BC8
:101EC000704700BF8446104662468C4619466346FA
:101ED00000E000BF01B5FFF7B7FF002848BF10F1D1
:101EE000000F01BD4DF808EDFFF7F4FF0CBF012016
:101EF00000205DF808FB00BF4DF808EDFFF7EAFF92
:101F000034BF012000205DF808FB00BF4DF808ED4C
:101F1000FFF7E0FF94BF012000205DF808FB00BF41
:101F20004DF808EDFFF7CEFF94BF012000205DF8CB
:101F300008FB00BF4DF808EDFFF7C4FF34BF0120D8
:101F400000205DF808FB00BF4FEA410C7FEA6C5CA3
:101F500002D150EA013C0AD14FEA430C7FEA6C5CA3
:101F600002D152EA033C02D14FF0000070474FF01B
:101F7000010070474FEA410212F5001215D211D547
:101F80006FF47873B3EB625212D94FEAC12343F076
:101F9000004343EA505311F0004F23FA02F018BFF8
:101FA000404270474FF00000704750EA013005D1C1
:101FB00011F0004008BF6FF0004070474FF0000084
:101FC000704700BF10B582B000240194154B1A6B06
:101FD00042F480021A631B6B03F480030193019B9C
:101FE000224605213A2000F06FFC3A2000F0A4FCC4
:101FF000224607213B2000F067FC3B2000F09CFCC0
:1020000022460721452000F05FFC452000F094FCAB
:1020100022460521462000F057FC462000F08CFCAB
:1020200002B010BD0038024008B5012005F0F3FAF7
:10203000FBE70000034B0360034B0B60802313603E
:10204000704700BFF40B0020F409002010B58EB0DB
:10205000124C0DF11C0CA646BEE80F00ACE80F00B8
:102060009EE807008CE80700002107A805F09EFA0B
:102070000B4B1860EE4604F11C0CBCE80F00AEE8F8
:102080000F009CE807008EE807000021684605F075
:102090008DFA044B18600EB010BD00BFE0F60008CA
:1020A000F0090020EC09002030B58BB00024059425
:1020B00006940794089409940094284B1A6B42F0F4
:1020C00004021A631A6B02F004020092009A01944F
:1020D0001A6B42F080021A631A6B02F080020192BE
:1020E000019A02941A6B42F002021A631A6B02F010
:1020F00002020292029A03941A6B42F001021A63DE
:102100001A6B02F001020392039A04941A6B42F0D4
:1021100008021A631B6B03F008030493049B104D21
:1021200022464FF40071284600F089FF4FF4006307
:10213000059306940223079305A9284600F086FE1E
:102140004FF400730593012306930794089405A99F
:10215000284600F07BFE0BB030BD00BF00380240C7
:102160000004024008B5FFF771FF05F007FA08BD4B
:1021700072B6FEE700B595B03022002108A807F03E
:1021800089FA00230393049305930693079301931D
:10219000214A116C41F080511164126C02F080529E
:1021A0000192019A02931D4B1A6842F480421A6010
:1021B0001B6803F480430293029B092308934FF4A6
:1021C0008033099301230D9302230E934FF4800271
:1021D0000F920F22109290221192129305231393C3
:1021E00008A800F033FF98B90F2303930223049348
:1021F000002305934FF4A05306934FF480530793A5
:10220000032103A801F070F920B915B05DF804FBB3
:10221000FFF7AEFFFFF7ACFF003802400070004050
:1022200000B587B0002301930293039304930593B1
:1022300000931C481C4A026043607F228260FF2298
:10224000C26003614361836101F020FB00BB002396
:102250008DF804308DF805308DF806300493059321
:10226000012201A90F4801F06AFBA0B901228DF8F3
:1022700000208DF801208DF8022000238DF8033016
:102280006946084801F0BAFB40B907B05DF804FBA5
:10229000FFF76EFFDBE7FFF76BFFE7E7FFF768FF8E
:1022A000F3E700BF480C00200028004000B585B0CF
:1022B0000023009301930293039302680B4B9A420D
:1022C00002D005B05DF804FB022300934FF40073C5
:1022D0000393684601F0DEF920B9054B0122C3F8EB
:1022E0003C2EEEE7FFF744FFF7E700BF0028004071
:1022F000000047422DE9F04389B000230393049383
:1023000005930693079302684F4B9A4202D009B097
:10231000BDE8F08304460025009503F586335A6C2A
:1023200042F400625A645A6C02F400620092009A0D
:1023300001951A6B42F004021A631A6B02F0040250
:102340000192019A02951A6B42F008021A631B6B04
:1023500003F008030293029B4FF4F85303934FF0EA
:102360000209CDF81090032606964FF00C08CDF820
:102370001C800DEB0801354800F068FD0427039729
:10238000CDF8109005950696CDF81C800DEB080150
:102390002F4800F05BFD2F482F4B03604FF0006388
:1023A00043608560C5604FF4806303614FF48053E0
:1023B00043614FF4804383612023C3610562476218
:1023C00086624FF40003C3624FF40013036300F00E
:1023D00055FB002831D11F4B23649C631F48204BC1
:1023E00003604FF000634360402383600023C360B9
:1023F0004FF4806202614FF4805242614FF4804298
:1024000082612022C2610362042343620323836248
:102410004FF40003C3624FF40013036300F02EFB7C
:1024200070B90E4BE3639C6300220621312000F05B
:102430004BFA312000F080FA69E7FFF799FECAE70E
:10244000FFF796FEEDE700BF002C014000080240B8
:10245000000C0240680C002058640240C80C0020A8
:10246000A0640240054B064A1A6000225A609A6036
:10247000DA601A615A6104229A617047280D0020BF
:10248000002C014000B583B0002200920D4B596C26
:1024900041F480415964596C01F4804100910099E4
:1024A0000192196C41F0805119641B6C03F0805348
:1024B0000193019B0F216FF0010000F005FA03B0BA
:1024C0005DF804FB00380240FEE7FEE7FEE7FEE7AA
:1024D000FEE7704708B500F0BFF906F09BFE012843
:1024E00000D108BD05F0D6FAFBE7000008B50248A8
:1024F00002F0C6FB08BD00BF700E002008B5024800
:1025000002F082F808BD00BF280D002008B502487F
:1025100000F0ACFB08BD00BFB00D002008B50248BC
:1025200000F0A4FB08BD00BF680C002008B50248FD
:1025300000F09CFB08BD00BFC80C002008B5024895
:1025400000F094FB08BD00BF100E00200120704772
:1025500008B507F075F8162303604FF0FF3008BD8B
:1025600008B54FF0FF31FFF7F3FFFEE770B50C46FB
:102570001646002506E0AFF30080214601F8010B66
:1025800001350C46B542F6DB304670BD70B50C46E1
:102590001646002504E014F8010BAFF30080013566
:1025A000B542F8DB304670BD4FF0FF3070474FF456
:1025B00000534B6000207047012070470020704797
:1025C00010B503460C4A0D490D48006840B10C484F
:1025D00000680344521A934206D8094A136010BD9A
:1025E0000748084C0460F2E707F02AF80C23036060
:1025F0004FF0FF30F3E700BF0000022000080000AA
:10260000AC0D002010510020034AD2F8883043F46A
:102610007003C2F88830704700ED00E008B50A4842
:102620000A4B03604FF4E133436000238360C360CF
:1026300003610C2242618361C36102F0CBF900B9EE
:1026400008BDFFF795FDFBE7700E0020001001406C
:1026500030B589B000230393049305930693079341
:10266000026803F1804303F588339A4201D009B030
:1026700030BD04460025019503F594335A6C42F0B1
:1026800010025A645A6C02F010020192019A0295EB
:102690001A6B42F001021A631B6B03F001030293F1
:1026A000029B4FF4C0630393022304930323069316
:1026B0000723079303A9204800F0C8FB1F48204BBD
:1026C00003604FF0006343608560C5604FF4806332
:1026D000036145618561C5610562456200F0CEF91F
:1026E00018BB164BE3639C631648174B03604FF00F
:1026F00000634360402383600023C3604FF4806223
:10270000026143618361C3610362436200F0B6F911
:1027100070B90C4BA3639C6300220521252000F0B7
:10272000D3F8252000F008F9A1E7FFF721FDD8E74D
:10273000FFF71EFDEDE700BF00000240B00D0020D6
:1027400040640240100E0020B86402400FB410B57F
:1027500082B004AB53F8042B0193084C4FF4007182
:10276000204608F097FD82B22146054802F062F942
:1027700002B0BDE8104004B0704700BFB80E0020A2
:10278000700E0020DFF834D0FFF73EFF0C480D49F3
:102790000D4A002302E0D458C4500433C4188C42BC
:1027A000F9D30A4A0A4C002301E013600432A24222
:1027B000FBD306F04BFF06F031FF7047000002200C
:1027C00000000020D00900207CFD0008D009002076
:1027D0000C510020FEE7000010B504460E4B18789F
:1027E0004FF47A73B3FBF0F30C4A1068B0FBF3F0CC
:1027F00000F0B0F868B90F2C01D901200AE00022DE
:1028000021464FF0FF3000F05FF8054B1C600020C0
:1028100000E0012010BD00BF0400002000000020E7
:102820000800002008B50B4B1A6842F400721A60C9
:102830001A6842F480621A601A6842F480721A6060
:10284000032000F02FF80F20FFF7C6FFFFF71AFE56
:10285000002008BD003C0240034A1168034B1B786E
:102860000B441360704700BFB81000200400002024
:10287000014B1868704700BFB810002038B50446F7
:10288000FFF7F6FF0546B4F1FF3F02D0044B1B787B
:102890001C44FFF7EDFF401BA042FAD338BD00BF38
:1028A00004000020074AD36823F4E0631B041B0CD8
:1028B000000200F4E060034343F0BF6343F40033DD
:1028C000D360704700ED00E000B5194BDB68C3F33F
:1028D0000223C3F1070CBCF1040F28BF4FF0040C16
:1028E00003F1040EBEF1060F18D9033B4FF0FF3E73
:1028F0000EFA0CFC21EA0C0199400EFA03F322EACD
:102900000303194300280BDB0901C9B200F1604041
:1029100000F5614080F800135DF804FB0023E5E753
:1029200000F00F000901C9B2024B1954F4E700BFCF
:1029300000ED00E014ED00E0002807DB00F01F02CE
:10294000400901239340024A42F82030704700BFFB
:1029500000E100E00138B0F1807F0BD24FF0E023BE
:102960005861054AF02182F823100020986107225F
:102970001A6170470120704700ED00E030B405682F
:102980002C6824F480242C60046863608368402BE6
:1029900005D0036899600368DA6030BC704703684B
:1029A0009A600368D960F8E710B40368D9B21039A7
:1029B0000C4AA2FB014212090B4CA25CC2655F29C2
:1029C00009D923F47F7323F0030304338365806DF7
:1029D0005DF8044B704723F47F7323F00303836592
:1029E000F5E700BFABAAAAAA58F70008836A826974
:1029F00092B9012B0AD0022B02D00BB100207047F4
:102A0000C36A13F0807F28D100207047C36AB3F1F6
:102A1000C07F24D000207047B2F5005F09D0022BA0
:102A200025D9032B25D1C36A13F0807F23D1002041
:102A30007047032B03D8DFE803F01404140A0020C6
:102A40007047C36A13F0807F0DD100207047C36ABE
:102A5000B3F1C07F09D000207047012070470120EA
:102A60007047012070470120704701207047012006
:102A700070470020704701207047000070B5044681
:102A8000FFF7F6FE002C5BD00546022384F83530B4
:102A9000002384F834302268136823F001031360A4
:102AA00023681A6812F0010F0AD0FFF7E1FE431BFA
:102AB000052BF5D920236365032084F8350070BD0C
:102AC0001A68204810406168A2680A43E1680A4316
:102AD00021690A4361690A43A1690A43E1690A431A
:102AE000216A0A430243616A04291ED01A602668DB
:102AF000756925F00705636A1D43042B07D1A36A96
:102B00001D43E36A1BB12046FFF770FF90B9756162
:102B10002046FFF749FFE26D3F239340836000208A
:102B20006065012384F83530C9E7E16A206B014311
:102B30000A43DBE740236365012084F83500BEE7E4
:102B40000120BCE73F8010F038B50446856D90F851
:102B5000340001282BD0012084F8340094F835008B
:102B6000C0B2012804D0002384F83430022038BDDC
:102B7000022084F83500002060652046FFF7FEFE45
:102B8000E26D3F239340AB602268136843F0160365
:102B90001360236C23B12268136843F008031360A9
:102BA0002268136843F0010313600020DFE702206E
:102BB000DDE770B50446866DFFF75AFE94F83530B0
:102BC000DBB2022B06D080236365002384F8343007
:102BD000012070BD05462268136823F016031360B8
:102BE0002268536923F080035361236CE3B12268A8
:102BF000136823F0080313602268136823F00103AD
:102C0000136023681B6813F0010F11D0FFF730FE2B
:102C1000431B052BF5D920236365032084F8350079
:102C2000002384F83430D4E7A36C002BDFD1E3E732
:102C3000E26D3F239340B360012384F835300020D8
:102C400084F83400C5E790F83530DBB2022B03D0AE
:102C50008023436501207047052380F835300268E2
:102C6000136823F00103136000207047F0B583B0B0
:102C7000044600230193724B1D68724BA3FB05357C
:102C8000AD0A876D3E68C26D08239340334210D071
:102C900003681A6812F0040F0BD01A6822F00402BD
:102CA0001A60C26D08239340BB60436D43F001037B
:102CB0004365E26D01239340334209D02268526993
:102CC00012F0800F04D0BB60636D43F002036365B4
:102CD000E26D04239340334209D02268126812F057
:102CE000020F04D0BB60636D43F004036365E26DC3
:102CF00010239340334224D02268126812F0080F48
:102D00001FD0BB6023681A6812F4802F0DD01B6897
:102D100013F4002F04D1236C9BB12046984710E098
:102D2000A36C73B1204698470BE01A6812F4807FB9
:102D300003D11A6822F008021A60236C0BB12046F6
:102D40009847E26D20239340334255D022681268A1
:102D500012F0100F50D0BB6094F83530DBB2052B69
:102D60000ED023681A6812F4802F33D01B6813F436
:102D7000002F2AD1636C002B3ED0204698473BE0C1
:102D80002268136823F0160313602268536923F046
:102D900080035361236CA3B12268136823F00803F6
:102DA0001360E26D3F239340BB60012384F835300C
:102DB000002384F83430236D002B3FD02046984701
:102DC0003CE0A36C002BE7D1EBE7E36BA3B120461B
:102DD000984711E01A6812F4807F09D11A6822F02E
:102DE00010021A60012384F83530002384F834304F
:102DF000E36B0BB120469847636DFBB1636D13F035
:102E0000010F17D0052384F835302268136823F0AA
:102E100001031360019B01330193AB4204D8236883
:102E20001B6813F0010FF5D1012384F8353000231E
:102E300084F83430E36C0BB12046984703B0F0BD02
:102E400000000020B5814E1B406D704700230F2B02
:102E500000F2E48070B582B060E085685E00032413
:102E6000B44025EA0405CC68B4402C43846045682E
:102E700025EA02054C68C4F300129A402A434260D6
:102E80005AE0DC08083450F8246003F0070295008B
:102E90000F22AA4026EA020E0A69AA4042EA0E025E
:102EA00040F824205CE0072200E0002202FA0EF243
:102EB0002A4302345A4D45F824205A4A94686FEA4E
:102EC0000C0224EA0C054E6816F4801F01D04CEA6F
:102ED0000405544CA560E46802EA04054E6816F443
:102EE000001F01D04CEA04054E4CE560646802EA1C
:102EF00004054E6816F4003F01D04CEA0405494C25
:102F00006560246822404D6815F4803F01D04CEA8A
:102F10000402444C226001330F2B7DD801229A40D9
:102F20000C6804EA020C32EA0404F4D14C6804F0A0
:102F30000304013C012C90D94A6802F00302032AE1
:102F400009D0C4685D000322AA4024EA02048A680A
:102F5000AA402243C2604A6802F00302022A90D0CB
:102F600004684FEA430E032202FA0EF224EA020436
:102F70004A6802F0030202FA0EF2224302604A6833
:102F800012F4403FC7D000220192274A546C44F407
:102F900080445464526C02F480420192019A9C086D
:102FA000A51C1F4A52F8255003F003024FEA820E77
:102FB0000F2202FA0EF225EA02051C4A90423FF463
:102FC00074AF02F5806290421AD002F5806290429E
:102FD00018D002F58062904216D002F580629042CD
:102FE00014D002F58062904212D002F580629042C5
:102FF00010D002F5806290423FF455AF082255E7A9
:10300000012253E7022251E703224FE704224DE752
:1030100005224BE7062249E702B070BD704700BFAA
:1030200000380140003C01400038024000000240EE
:103030000369194201D001207047002070470AB18E
:10304000816170470904816170470000002800F029
:10305000E08170B582B00446036813F0010F3BD0E5
:103060009F4B9B6803F00C03042B2CD09C4B9B685C
:1030700003F00C03082B21D06368B3F5803F4FD0D9
:10308000B3F5A02F52D0964B1A6822F480321A6002
:103090001A6822F480221A606368002B50D0FFF770
:1030A000E7FB05468E4B1B6813F4003F14D1FFF776
:1030B000DFFB401B6428F5D90320B1E1884B5B6836
:1030C00013F4800FD8D0864B1B6813F4003F03D055
:1030D0006368002B00F09F81236813F0020F54D027
:1030E0007F4B9B6813F00C0F3ED07D4B9B6803F029
:1030F0000C03082B33D0E368002B68D0794B0122F6
:103100001A60FFF7B5FB0546754B1B6813F0020FFD
:1031100054D1FFF7ADFB401B0228F5D903207FE116
:103120006F4A136843F480331360B5E76C4B1A6839
:1031300042F480221A601A6842F480321A60ABE7C7
:10314000FFF796FB0546664B1B6813F4003FC3D0A0
:10315000FFF78EFB401B6428F5D9032060E1604B2C
:103160005B6813F4800FC6D15D4B1B6813F0020F30
:1031700003D0E368012B40F05081594A136823F0D3
:10318000F803216943EAC1031360236813F0080FB1
:1031900042D063696BB3534B0122C3F8802EFFF713
:1031A00067FB05464E4B5B6F13F0020F34D1FFF700
:1031B0005FFB401B0228F5D9032031E1484A136820
:1031C00023F0F803216943EAC1031360DDE7454BAF
:1031D00000221A60FFF74CFB0546414B1B6813F0B9
:1031E000020FD2D0FFF744FB401B0228F5D9032081
:1031F00016E13C4B0022C3F8802EFFF739FB054651
:10320000374B5B6F13F0020F06D0FFF731FB401B0B
:103210000228F5D9032003E1236813F0040F77D0C7
:103220002F4B1B6C13F0805F33D1002301932C4B89
:103230001A6C42F080521A641B6C03F080530193A5
:10324000019B0125284B1B6813F4807F23D0A368C2
:10325000012B34D0052B38D0214B1A6F22F00102FC
:103260001A671A6F22F004021A67A368002B3DD078
:10327000FFF7FEFA06461A4B1B6F13F0020F46D1FA
:10328000FFF7F6FA801B41F288339842F3D9032006
:10329000C6E00025D6E7144A136843F48073136030
:1032A000FFF7E6FA0646104B1B6813F4807FCED179
:1032B000FFF7DEFA801B0228F5D90320B0E0084AA8
:1032C000136F43F001031367CFE7054B1A6F42F00A
:1032D00004021A671A6F42F001021A67C5E700BFBD
:1032E000003802400000474200700040FFF7C0FA7B
:1032F0000646524B1B6F13F0020F08D0FFF7B8FAC7
:10330000801B41F288339842F3D9032088E0EDB95D
:10331000A369002B00F08380484A926802F00C02F7
:10332000082A51D0022B17D0454B00221A66FFF70E
:103330009FFA0446414B1B6813F0007F42D0FFF711
:1033400097FA001B0228F5D9032069E03B4A136C69
:1033500023F080531364DBE7394B00221A66FFF732
:1033600087FA0546354B1B6813F0007F06D0FFF740
:103370007FFA401B0228F5D9032051E0E369226A55
:103380001343626A43EA8213A26A5208013A43EA8B
:103390000243E26A43EA0263284A5360284B01224F
:1033A0001A66FFF765FA0446244B1B6813F0007F8A
:1033B00006D1FFF75DFA001B0228F5D903202FE0A4
:1033C00000202DE000202BE0012B2BD01B4B5B6855
:1033D00003F48001E269914226D103F03F02216AA1
:1033E0008A4223D1616A47F6C0721A40B2EB811F4C
:1033F0001ED103F44031A26A5208013AB1EB024FE8
:1034000018D103F07063E26AB3EB026F14D10020AD
:1034100006E001207047012002E0012000E00020CA
:1034200002B070BD0120FBE70120F9E70120F7E7BA
:103430000120F5E70120F3E70120F1E70038024021
:103440000000474208B5254B9B6803F00C03042B92
:103450003FD0082B3FD1214B5A6802F03F025B68F6
:1034600013F4800F12D01D4B5968C1F388111C480A
:103470000023A1FB0001FCF7C3FE184B5B68C3F3FC
:10348000014301335B00B0FBF3F025E0134B5968B7
:10349000C1F3881C4FEA4C11B1EB0C006EEB0E0E21
:1034A0004FEA8E1343EA90638101091A63EB0E031E
:1034B000DB0043EA5173C90011EB0C0C43F100032C
:1034C000990200234FEA8C2041EA9C51FCF798FEB8
:1034D000D3E7034800E0034808BD00BF00380240BE
:1034E00040787D010024F400002800F09B8070B536
:1034F0000D4604464F4B1B6803F007038B4208D26E
:10350000CBB24C4A1370136803F007038B4240F0B0
:103510008B80236813F0020F17D013F0040F04D030
:10352000454A936843F4E0539360236813F0080F0F
:1035300004D0414A936843F4604393603E4A9368E1
:1035400023F0F003A1680B439360236813F0010F8D
:1035500032D06368012B21D09A1E012A25D9364A20
:10356000126812F0020F61D033498A6822F0030218
:1035700013438B60FFF77CF906462F4B9B6803F0E3
:103580000C036268B3EB820F16D0FFF771F9801B52
:1035900041F288339842F0D9032042E0264A12686B
:1035A00012F4003FE0D101203BE0234A126812F000
:1035B000007FD9D1012034E01E4B1B6803F00703C4
:1035C000AB4207D9EAB21B4B1A701B6803F0070322
:1035D000AB422DD1236813F0040F06D0164A93682E
:1035E00023F4E053E1680B439360236813F0080F62
:1035F00007D0114A936823F46043216943EAC10369
:103600009360FFF71FFF0C4B9B68C3F303130B4A38
:10361000D35CD8400A4B18600A4B1868FFF7DCF8F7
:10362000002070BD012070470120FAE70120F8E773
:103630000120F6E7003C02400038024040F7000855
:103640000000002008000020014B1868704700BFF0
:103650000000002008B5FFF7F7FF044B9B68C3F399
:103660008223034AD35CD84008BD00BF0038024023
:1036700050F7000808B5FFF7E7FF044B9B68C3F35A
:103680004233034AD35CD84008BD00BF0038024033
:1036900050F7000830B583B00446036813F0050FF7
:1036A00006D1236813F0020F2ED1002003B030BDE5
:1036B0004A4B00229A66FFF7DBF80546484B1B6829
:1036C00013F0006F06D0FFF7D3F8431B022BF5D998
:1036D0000320EBE76268A3681B0743EA8213404AB2
:1036E000C2F884303D4B01229A66FFF7C1F80546C7
:1036F0003B4B1B6813F0006FD3D1FFF7B9F8431BA6
:10370000022BF5D90320D1E700230193344B1A6C27
:1037100042F080521A641B6C03F080530193019BAA
:10372000304A136843F480731360FFF7A1F805462D
:103730002C4B1B6813F4807F06D1FFF799F8431BCD
:10374000022BF5D90320B1E7254B1B6F13F440730F
:1037500014D0E26802F440729A420FD0204B1A6FE4
:1037600022F440721D490120C1F8400E0020C1F82A
:10377000400E1A671B6F13F0010F13D1E36803F4B7
:103780004072B2F5407F1ED0154A936823F4F813B7
:10379000936013490B6FE268C2F30B0213430B678C
:1037A000002083E7FFF764F805460D4B1B6F13F00D
:1037B000020FE3D1FFF75CF8401B41F288339842D7
:1037C000F3D9032072E706498A6822F4F81223F03D
:1037D000704323F4407313438B60DAE700004742E1
:1037E000003802400070004038B5044603680A4AB9
:1037F000DA60FFF73DF805462368DB6813F0200F19
:1038000007D1FFF735F8401BB0F57A7FF4D90320D4
:1038100000E0002038BD00BF5F7F010070B5036885
:10382000DA6812F0400F02D00025284670BD044629
:10383000DA6842F08002DA60FFF71AF806460025DF
:103840002368DB6813F0400FEFD1002DEDD1FFF7B7
:103850000FF8831BB3F57A7FF2D904236377012530
:10386000EEE70268D36823F08003D36003689B68A7
:1038700013F0200F01D00020704710B50446FFF769
:10388000B3FF10B104236377012010BD002849D095
:1038900010B50446437F53B1022363772368DA6887
:1038A00012F0100F07D000200123637710BD0377BB
:1038B000FEF7FCFCF0E7CA225A62236853225A62E0
:1038C0002046FFF7ABFF80B148B92268136C23F4A0
:1038D000802313642268136CA1690B43136423686B
:1038E000FF225A620028E1D1DEE72268936823F4C0
:1038F000E00323F04003936021688A6863682069CD
:1039000003436069034313438B602368E2681A61D1
:1039100022681369A16843EA014313612046FFF757
:10392000A0FFD1E701207047002302E001330A38ED
:10393000C0B20928FAD81B01DBB218437047037FD5
:10394000012B59D070B504460E460123037702239C
:1039500043774ABB03689B6813F0400F01D10023F3
:10396000CB703078FFF7E0FF05047078FFF7DCFFDD
:1039700045EA0025B078FFF7D7FF0543F07845EA20
:1039800080552368CA225A62236853225A6220460D
:10399000FFF744FFD0B108B9012363772368FF2202
:1039A0005A620023237770BD03689B6813F0400FB1
:1039B00001D10023CB70337875782D0245EA034599
:1039C000B0780543F07845EA8055DAE7236805F0DA
:1039D0007F3525F0FE451D602268936823F480231F
:1039E000936021688B68F2683069024313438B60EF
:1039F0002046FFF736FFCEE702207047037F012BFA
:103A000048D070B504460E4601230377022343775E
:103A10003AB94B7813F0100F03D003F0EF030A33D9
:103A20004B7012BBF078FFF77FFF05047078FFF74B
:103A30007BFF45EA0025B078FFF776FF0543307835
:103A400045EA40352368CA225A62236853225A62E3
:103A50002046FFF7E3FE98B108B901236377236896
:103A6000FF225A620023237770BDF37875782D0208
:103A700045EA0345B0780543307845EA4035E1E74B
:103A8000236825F07F4525F0C0055D602046FFF7DF
:103A9000E8FEE1E702207047836B1A68D36B43F4BA
:103AA0008073D3637047000070B582B00446002372
:103AB0000193006801F097FA054610B1284602B05C
:103AC00070BD206801F088FD38B90123A364A36CA0
:103AD000012B0BD02E46284614E00023A364206857
:103AE00001F081FA0028F2D00546E7E700212068BE
:103AF00001F0E0FB0028EDD04FF08055DEE7019BA0
:103B000001330193019A4FF6FE739A4213D896B986
:103B10000021206801F0CEFBE0B91249206801F0D5
:103B2000A7FC0646C0B90021206801F047FAC30F80
:103B3000E5D01E46E3E7019A4FF6FE739A420ED88F
:103B400010F0804302D001236364B7E7002262646F
:103B50001D46B3E70546B1E74FF08055AEE74FF09D
:103B60008075ABE7000010C1F8B5846AC66AA6B9D3
:103B7000F8BD386801F0FDF92070C0F307236370C9
:103B8000C0F30743A370000EE0700434043E013517
:103B9000072DEED9BC62FE62EAE707460025F7E78B
:103BA000F0B583B0046A466ADEB903B0F0BD23788D
:103BB0000193627843EA02230193A27843EA024325
:103BC0000193E27843EA026301930434043E01A9BD
:103BD000386801F0D1F90135072DE8D93C627E62E1
:103BE000E3E707460025F7E7F0B589B004460F463E
:103BF000FEF73EFE0646002300930193082120684D
:103C000001F0AEFA054610B1284609B0F0BD216DAD
:103C10000904206801F04EFB05460028F4D14FF05E
:103C2000FF33029308230393302304930223059365
:103C3000002306930123079302A9206801F0C1F92C
:103C4000206801F067FB054658B1DDE701F091F906
:103C50004DF825000135FEF70BFE831BB3F1FF3F46
:103C600043D02068436B13F02A0F07D1436B13F442
:103C7000001FEBD1436B13F4005FECD1436B13F0E7
:103C8000080F29D1436B13F4007F25D1436B13F048
:103C9000020F24D1456B15F0200523D140F23A5391
:103CA0008363019A130203F47F0343EA0263110A58
:103CB00001F47F410B4343EA12633B60009A130215
:103CC00003F47F0343EA0263110A01F47F410B43CB
:103CD00043EA12637B6097E70825856394E7022532
:103CE000856391E7202585638EE74FF000458BE7DC
:103CF00010B582B00446002100910191006801F0E6
:103D00005DF910F0007F13D169462046FFF76CFF84
:103D100080B9019B13F4802F0ED0216D0904206817
:103D200001F0C8FA30B90221206801F0DBFA01E0A5
:103D30004FF4006002B010BD4FF08060FAE710B59C
:103D400082B00446002100910191006801F036F92B
:103D500010F0007F13D169462046FFF745FF80B978
:103D6000019B13F4803F0ED0216D0904206801F0FF
:103D7000A1FA30B90021206801F0B4FA01E04FF453
:103D8000006002B010BD4FF08060FAE770B581B1FD
:103D900004460E46016D0904006801F0D3FA054699
:103DA00008B1284670BD0021206801F007F9306095
:103DB000F7E74FF00065F4E72DE9F04387B00446DC
:103DC00091B116461F460A4690F83450EDB2012DC7
:103DD0007FD100238363F019E36D98420AD9A36B66
:103DE00043F00073A36375E0836B43F00063836368
:103DF00001256FE0032384F8343023680021D96261
:103E00002068C36B43F44A7343F00203C363236C1B
:103E10003348D863236C3348D864236C1965236C0A
:103E20009960206C01680B6823F0C003806803432D
:103E30000B6021684FEA47294FEA99038031206CD3
:103E4000FEF782FE804668BB274B0122C3F88C2513
:103E5000636C934200D076024FF0FF330093CDF8AD
:103E600004909023029302230393002304930123DD
:103E700005936946206801F0A4F8012F22D9822316
:103E800023633146206801F09BF938B32368174A51
:103E90009A63A36B1843A063012384F83430002392
:103EA000236317E02268D36B23F49573D3632368ED
:103EB0000E4A9A63A36B43F08043A363012384F803
:103EC000343007E0812323633146206801F060F934
:103ED000DBE70225284607B0BDE8F0834546F9E751
:103EE0002F4000081945000800802542FF054000CA
:103EF000F0B587B0044600293BD01E460F4690F827
:103F00003450EDB2012D40F0848000238363931977
:103F1000C16D8B4233D8032380F83430036800210D
:103F2000D9620068C36B43F4067343F00203C363B2
:103F3000E36B3A48D863E36B3948D864E36B19659F
:103F4000636C012B00D05202012E1DD9A0232363E4
:103F50001146206801F064F9E8B12368314A9A6398
:103F6000A36B1843A063012384F834300023236338
:103F700050E0836B43F00063836301254AE0836B69
:103F800043F00073836345E0902323631146206868
:103F900001F02EF9E0E7244B0122C3F88C25E36BF6
:103FA00040229A60E16B0A68136823F0C0038968B5
:103FB0000B43136022687602B30880323946E06B07
:103FC000FEF7C2FD074698B12268D36B23F406734F
:103FD00023F00203D3632368124A9A63A36B43F06E
:103FE0008043A363012384F834300023236311E06A
:103FF0004FF0FF3300930196902302930023039325
:104000000493012305936946206800F0DAFF3D46DA
:1040100000E00225284607B0F0BD00BF993A00082D
:1040200019450008FF05400000802542704710B583
:10403000846B236B822B11D02268D36A23F0080390
:10404000D362236840F23A529A63012384F83430F1
:1040500000232363204601F01AFB10BD206801F005
:10406000F7F803460028E7D0A26B1343A36320466A
:10407000FFF7DCFFE0E70000436E9B0F0B70436E21
:10408000C3F383634B7090F8673003F003038B70C6
:1040900090F86630CB7090F865300B7190F8643012
:1040A0004B71836E1B0DCB80B0F86A3003F00F03A9
:1040B0000B72836EC3F3C0334B72836EC3F38033D2
:1040C0008B72836EC3F34033CB72836EC3F30033C2
:1040D0000B7300234B73436C002B40F08680826E81
:1040E00040F6FC7303EA8203C26E43EA92730B61EB
:1040F000C36EC3F3C2630B7590F86F3003F0070310
:104100004B75C36EC3F342538B75C36EC3F38243C7
:10411000CB75C36EC3F3C2330B760B6901334365B2
:104120000A7E02F007020232934043650A7A02F0E7
:104130000F0C012202FA0CF28265520A02FB03F311
:10414000C3654FF400730366C36EC3F380334B76CD
:10415000C36EC3F3C6138B76C36E03F07F03CB76B7
:10416000036FDB0F0B77036FC3F341734B77036F61
:10417000C3F382638B77036FC3F38353CB77036FF0
:10418000C3F3405381F82030002381F82130B0F888
:10419000722002F0010281F82220026FC2F3C032C5
:1041A00081F82320026FC2F3803281F82420026F4D
:1041B000C2F3403281F82520026FC2F3003281F849
:1041C0002620026FC2F3812281F82720026FC2F3FA
:1041D000012281F82820026FC2F3460281F82920CB
:1041E000012281F82A2018467047012B11D1836ED5
:1041F0001B0403F47C13B0F86E2013430B610B69AE
:1042000001339B024365C3654FF400738365036606
:104210009AE70368054A9A63836B43F0805383638C
:10422000012380F834301846704700BFFF05400076
:1042300070B590B004460123ADF81230006800F06C
:10424000A4FE00286CD0636C032B45D1636C032B58
:104250005DD1636C032B1DD0BDF8121021650904DC
:10426000206801F0CAF8054600285BD100212068CB
:1042700000F0A4FE60660421206800F09FFEA066A6
:104280000821206800F09AFEE0660C21206800F00A
:1042900095FE20670421206800F090FE000DE06488
:1042A00005A92046FFF7E8FE00283ED1226D120442
:1042B0000023206800F0E6FF054698BB234653F82C
:1042C000106B93E807008DE80700043494E80E00B3
:1042D000304600F035FE25E0206801F079F805460B
:1042E00000BB0021206800F069FE6067042120689F
:1042F00000F064FEA0670821206800F05FFEE06720
:104300000C21206800F05AFEC4F880009EE70DF1F1
:104310001201206801F016F90546002899D001E045
:104320004FF08065284610B070BD4FF08055F9E71A
:1043300070B58AB00446002304930593069307934F
:104340000893762309930AAB13E907008DE8070069
:1043500004AB0ECB206800F0F3FD18B10125284610
:104360000AB070BD05461A4E0023C6F8A03020687A
:1043700000F007FE0123C6F8A0300220FEF77EFA07
:104380002046FFF791FB30B1012584F83450A36B30
:104390000343A363E3E72046FFF74AFF30B101255B
:1043A00084F83450A36B0343A363D8E74FF4007140
:1043B000206800F0D5FE0028D1D023680549996314
:1043C000A36B0343A363012584F83450C7E700BF00
:1043D00000802542FF054000A8B110B5044690F8C2
:1043E000343063B1032384F834302046FFF7A0FF54
:1043F00058B9A0632063012384F8343010BD0377DB
:10440000FDF778FFEEE7012070470120F6E7436CE7
:104410000B60836C4B60C36C8B60036DCB60436D32
:104420000B61836D4B61C36D8B61036ECB610020AB
:104430007047000030B58BB004460D46032380F86A
:104440003430436C032B1CD0B1F5805F08D0B1F53C
:10445000006F0AD079B1836B43F00063836314E08B
:10446000836B43F0805383630FE0FFF741FCA36B42
:104470000343A36309E0FFF762FCA36B0343A36359
:1044800003E0836B43F080538363A36BC3B1236862
:10449000174A9A63012584F834504FF4007120685C
:1044A00000F05EFE30B1236811499963A36B0343AA
:1044B000A3630125012384F8343028460BB030BDB6
:1044C00063680493A3680593E3680693079563699B
:1044D0000893A36909930AAB13E907008DE8070065
:1044E00004AB0ECB206800F02BFD0025D5E700BF04
:1044F000FF05400010B582B004460023019301A9D6
:10450000FFF744FC10B1A36B0343A3630198C0F30E
:10451000432002B010BD000010B5846BFEF794FC80
:1045200002280AD0236C5B6DE26B526D012B05D023
:10453000012A03D02046FFF779FD10BD23680F4AFA
:104540009A632268D36B23F49D73D363A36B43F008
:104550008043A3632046FFF7CDFF0538012805D926
:10456000012384F8343000232363E3E7206800F05C
:104570006FFEA36B0343A363F2E700BFFF05400098
:1045800010B5846B236840F23A529A632046FFF7D5
:10459000B1FF012384F83430002323630538012858
:1045A00005D9A36B53B9204601F069F810BD206806
:1045B00000F04EFEA36B0343A363F2E72046FFF730
:1045C00035FDF3E710B5846B236840F23A529A63E5
:1045D0002046FFF78FFF012384F834300023236344
:1045E0000538012805D9A36B53B9204601F047F8D7
:1045F00010BD206800F02CFEA36B0343A363F2E719
:104600002046FFF713FDF3E738B50446056B036852
:104610005A6B12F4004F02D015F0080F28D15A6BD4
:1046200012F4807F5AD04FF480729A632268D36B61
:1046300023F4434323F03A03D3632268D36A23F07D
:104640000103D36215F0080F26D015F0220F12D106
:10465000236840F23A529A63012384F834300023ED
:10466000236315F0030F13D0204601F010F801E08A
:10467000FFF77AFA38BD206800F0EAFD034600280B
:10468000E6D0A26B1343A3632046FFF7CFFCDFE71E
:10469000204600F0F8FFEDE715F0800FEAD015F0A6
:1046A000200F0ED115F0030FE4D12268D36A23F056
:1046B0000803D362012384F83430204600F0E3FF7E
:1046C000D8E7206800F0C4FD03460028EAD0A26BBA
:1046D0001343A3632046FFF7A9FCE3E75A6B12F4E8
:1046E000804F02D015F0080F55D1596B40F23A2295
:1046F0001142BFD05A6B12F0020F03D0A26B42F0EE
:104700000202A2635A6B12F0080F03D0A26B42F0B0
:104710000802A2635A6B12F0200F03D0A26B42F082
:104720002002A2635A6B12F0100F03D0A26B42F06A
:104730001002A2635A6B12F4007F03D0A26B42F006
:104740000802A26340F23A729A632268D36B23F4A0
:104750004E7323F00203D363206800F079FDA36B4E
:104760000343A36315F0080F19D115F0800F81D012
:1047700015F0300F1CD115F0030F26D0236C184A0A
:104780001A65206CFEF75FFA00283FF473AF206CC7
:10479000FFF718FF6EE72046FFF702FA6AE70123EA
:1047A00084F83430002323632046FFF73FFC61E7A1
:1047B000E36B0C4A1A65E06BFEF745FA00283FF4FC
:1047C00059AFE06BFFF7DCFE54E70023A36301223F
:1047D00084F834202363204600F051FF4AE700BFED
:1047E000C545000881450008026802F10C0353E842
:1047F000003F23F0C0030C3242E800310029F3D11E
:10480000202380F841307047026802F10C0353E81E
:10481000003F23F490730C3242E800310029F3D1B9
:10482000026802F1140353E8003F23F0010314323D
:1048300042E800310029F3D1036B012B05D020237E
:1048400080F84230002303637047026802F10C03D2
:1048500053E8003F23F010030C3242E800310029F6
:10486000F3D1ECE790F84130DBB2212B01D00220EC
:1048700070478368B3F5805F17D0036A5A1C0262E1
:104880001A7803685A60C38C9BB2013B9BB2C38405
:104890004BB90268D36823F08003D3600268D36801
:1048A00043F04003D360002070470369002BE4D13C
:1048B000036A1B880268C3F308035360036A023368
:1048C0000362E0E738B504460268136923F44053F5
:1048D000C1680B4313618368026913434269134340
:1048E000C2691A430168CB6823F4164323F00C0312
:1048F0001343CB600268536923F4407381690B430F
:1049000053610368314A934206D002F580629342B4
:1049100002D0FEF79FFE01E0FEF7ACFEE369B3F5BF
:10492000004F29D00021031849411B1841F1000113
:10493000C90041EA5371DB00181863684FEA83022B
:104940004FEA937341F10001FBF75AFC204DA5FBA0
:1049500000325109642303FB11031B013233A5FB11
:1049600003235B0903F0F00202EB011203F00F03D3
:10497000216813448B6038BD0023021843EB030108
:10498000121841F10001C90041EA5271D200101819
:1049900041F10001626892185B41FBF731FC0C4D5C
:1049A000A5FB00325109642303FB1103DB00323302
:1049B000A5FB03235B095A0002F4F87202EB011213
:1049C00003F00703216813448B60D4E70010014013
:1049D0001F85EB5160B310B5044690F8413013B316
:1049E000242384F841302268D36823F40053D36031
:1049F0002046FFF767FF2268136923F49043136191
:104A00002268536923F02A0353612268D36843F470
:104A10000053D36000206064202384F8413084F880
:104A20004230606310BD80F84030FDF711FED7E7DB
:104A30000120704738B590F84130DBB2202B30D1DF
:104A4000044600292FD00AB9012038BD01628284B2
:104A5000C28400234364212084F84100A06B134DDD
:104A6000C563A06B124D0564A06B124DC564A06BAD
:104A7000036520681346021DA06BFEF765F82368E6
:104A80006FF040021A60226802F1140353E8003FFD
:104A900043F08003143242E800310029F3D10020B2
:104AA000D3E70220D1E70120CFE700BFBB4A0008CF
:104AB000234B0008314B0008704708B50346806B54
:104AC0001B681B6813F4807F1AD10023C38402681B
:104AD00002F1140353E8003F23F08003143242E84C
:104AE00000310029F3D1026802F10C0353E8003FC2
:104AF00043F040030C3242E800310029F3D108BDF5
:104B0000FFF7DAFFFBE708B50168CA6822F0400248
:104B1000CA60202280F84120FFF7CEFF002008BDA8
:104B2000704708B5806BFFF7FBFF08BD7047704703
:104B300010B5846B23685A6994F84130DBB2212B9D
:104B400010D023685A6902F0400294F84230DBB278
:104B5000222B11D0636C43F0100363642046FFF7EF
:104B6000E6FF10BD02F08002002AEAD00023E384B1
:104B70002046FFF739FEE4E7002AEBD00023E38567
:104B80002046FFF741FEE5E708B5806B0023C385AB
:104B9000C384FFF7CCFF08BD704790F84230DBB20A
:104BA000222B69D18368B3F5805F4FD0826AB3F559
:104BB000805F04D0002B56D10369002B53D10368CA
:104BC0005B681370836A01338362C38D9BB2013BC0
:104BD0009BB2C385002B51D100B583B00268D36866
:104BE00023F02003D3600268D36823F48073D3607A
:104BF0000268536923F001035361202380F8423097
:104C000000234363036B012B33D10023036302684A
:104C100002F10C0353E8003F23F010030C3242E88A
:104C200000310029F3D103681A6812F0100F06D082
:104C3000002201921A6801925B680193019B818DA9
:104C4000FFF7AAFF002003B05DF804FB0269002A09
:104C5000ACD1826A03685B68C3F308031380836A7C
:104C600002338362B1E703685B6803F07F0313706C
:104C7000A8E7FFF75BFFE5E70220704700207047D9
:104C800030B583B0044602681368D068516913F0E8
:104C90000F0505D113F0200F02D010F0200F19D10D
:104CA0002DB111F0010119D110F4907F16D1216BB3
:104CB00001297DD013F0800F03D010F0800F40F059
:104CC000198113F0400F03D010F0400F40F016810F
:104CD00003B030BD2046FFF760FFF9E713F0010F86
:104CE00006D010F4807F03D0626C42F0010262644F
:104CF00013F0040F04D019B1626C42F00202626436
:104D000013F0020F04D019B1626C42F00402626425
:104D100013F0080F07D010F0200F00D119B1626C0A
:104D200042F008026264626C002AD1D013F0200FB6
:104D300002D010F0200F29D123685B6903F04003F3
:104D4000626C12F0080F00D163B32046FFF75CFDE0
:104D500023685B6913F0400F20D0226802F114032E
:104D600053E8003F23F04003143242E800310029A9
:104D7000F3D1E36B73B1634A1A65E06BFDF763FF30
:104D80000028A5D0E06B036D9847A1E72046FFF708
:104D900004FFD1E72046FFF7CAFE99E72046FFF758
:104DA000C6FE95E72046FFF7C2FE002363648FE747
:104DB00013F0100F3FF47EAF10F0100F3FF47AAFF6
:104DC000002301931368019353680193019B536976
:104DD00013F0400F52D0E26B13685B689BB2002B5C
:104DE0003FF476AFA18D99427FF672AFE385D36928
:104DF000B3F5807F37D0226802F10C0353E8003FFF
:104E000023F480730C3242E800310029F3D1226888
:104E100002F1140353E8003F23F00103143242E887
:104E200000310029F3D1226802F1140353E8003F56
:104E300023F04003143242E800310029F3D120234B
:104E400084F8423000232363226802F10C0353E804
:104E5000003F23F010030C3242E800310029F3D167
:104E6000E06BFDF7A6FE02236363A18DE38D9BB289
:104E7000C91A89B22046FFF78FFE29E7A18DE38D7D
:104E80009BB2C91A89B2E38D9BB2002B3FF420AFCD
:104E900000293FF41DAF226802F10C0353E8003FE4
:104EA00023F490730C3242E800300028F3D12268DA
:104EB00002F1140353E8003F23F00103143242E8E7
:104EC00000300028F3D1202384F8423000232363EC
:104ED000226802F10C0353E8003F23F010030C3268
:104EE00042E800300028F3D1022363632046FFF735
:104EF00053FEEDE62046FFF7B5FCE9E62046FFF756
:104F000002FEE5E6894B00080B4B1B680B4AA2FB2F
:104F100003235B0A41F2883202FB03F31A46013B8A
:104F20003AB1426B12F0800FF8D0C52383630020A2
:104F300070474FF00040704700000020D34D6210D2
:104F400084B00DF1040C8CE80E000B461343039A59
:104F50001343049A1343059A1343069A1343426872
:104F600022F4FD4222F07F0213434360002004B08C
:104F70007047D0F8800070470B68C0F88030002080
:104F800070470323036000207047006800F00300AF
:104F900070470B6883604B688A681343CA68134381
:104FA0000A691343C26822F47F6222F00F0213439E
:104FB000C360002070470069C0B270471430405889
:104FC00070470B6843624B6883628B68CA681343FF
:104FD0000A6913434A691343C26A22F0F702134372
:104FE000C3620020704710B586B0044600230193C9
:104FF0000293039304934FF48063059301A9FFF791
:10500000C8FF2046FFF780FF06B010BD38B5044644
:105010000D46504B1B685049A1FB03135B0A03FB71
:1050200002F21346013A002B5DD0636B13F0450F7B
:10503000F7D013F4006FF4D1636B13F0040F06D1B3
:10504000636B13F0010F05D00120A0634DE0042035
:10505000A0634AE0C523A3632046FFF7ACFFA84244
:1050600001D0012041E000212046FFF7A7FF0346C1
:105070003A481840C8B3002B38DB13F0804F38D1C2
:1050800013F0005F37D113F0805F36D113F0006F5B
:1050900036D113F0806F36D113F0807F36D113F400
:1050A000000F36D113F4800F36D113F4001F36D120
:1050B00013F4801F36D113F4802F36D113F4003F40
:1050C00036D113F4803F36D113F4004F36D113F4A8
:1050D000804F36D113F4005F36D113F0080F36D06D
:1050E0004FF4000001E04FF0004038BD4FF0007079
:1050F000FBE74020F9E78020F7E74FF48070F4E702
:105100004FF40070F1E74FF48060EEE74FF4006079
:10511000EBE74FF48050E8E74FF40050E5E74FF439
:105120008040E2E74FF40040DFE74FF40030DCE777
:105130004FF48020D9E74FF40020D6E74FF48010D9
:10514000D3E74FF40010D0E74FF48000CDE74FF4E1
:105150008030CAE700000020D34D621008E0FFFD58
:1051600030B587B004460191102502954023039382
:10517000002304934FF48063059301A9FFF709FF0F
:1051800041F2883229462046FFF740FF07B030BD84
:1051900030B587B004460191112502954023039351
:1051A000002304934FF48063059301A9FFF7F1FEF8
:1051B00041F2883229462046FFF728FF07B030BD6C
:1051C00030B587B004460191122502954023039320
:1051D000002304934FF48063059301A9FFF7D9FEE0
:1051E00041F2883229462046FFF710FF07B030BD54
:1051F00030B587B0044601911825029540230393EA
:10520000002304934FF48063059301A9FFF7C1FEC7
:1052100041F2883229462046FFF7F8FE07B030BD3C
:1052200030B587B0044601911925029540230393B8
:10523000002304934FF48063059301A9FFF7A9FEAF
:1052400041F2883229462046FFF7E0FE07B030BD24
:1052500030B587B00446002301930C250295402207
:10526000039204934FF48063059301A9FFF791FE25
:10527000034A29462046FFF7C9FE07B030BD00BFEC
:1052800000E1F50530B587B0044601920725029587
:1052900040230393002304934FF48063059301A9F3
:1052A000FFF777FE41F2883229462046FFF7AEFE2F
:1052B00007B030BD30B587B004460191372502955F
:1052C00040230393002304934FF48063059301A9C3
:1052D000FFF75FFE41F2883229462046FFF796FE2F
:1052E00007B030BD30B587B0044601910625029560
:1052F00040230393002304934FF48063059301A993
:10530000FFF747FE41F2883229462046FFF77EFE2E
:1053100007B030BD30B587B0044600230193332574
:1053200002954022039204934FF48063059301A9F0
:10533000FFF72FFE41F2883229462046FFF766FE2E
:1053400007B030BD30B587B0044601910D250295F8
:1053500040230393002304934FF48063059301A932
:10536000FFF717FE41F2883229462046FFF74EFE2E
:1053700007B030BD0146144B1B68144AA2FB03233F
:105380005B0A41F2883202FB03F31A46013BBAB1D1
:105390004A6B12F0450FF8D012F4006FF5D14B6B49
:1053A00013F0040F06D1486B10F0010005D1C5239E
:1053B0008B637047042088637047012088637047BF
:1053C0004FF00040704700BF00000020D34D621036
:1053D00010B586B004460023019302220292C02237
:1053E000039204934FF48063059301A9FFF7D1FD65
:1053F0002046FFF7BFFF06B010BD10B586B00446CB
:10540000019109230293C0230393002304934FF4D3
:105410008063059301A9FFF7BCFD2046FFF7AAFFB3
:1054200006B010BD0146104B1B68104AA2FB0323B7
:105430005B0A41F2883202FB03F31A46013B82B158
:105440004A6B12F0450FF8D012F4006FF5D1486B9B
:1054500010F0040002D1C5238B63704704208863D9
:1054600070474FF00040704700000020D34D62109D
:1054700010B586B0044641F0004141F4801101911D
:105480002923029340230393002304934FF4806362
:10549000059301A9FFF77DFD2046FFF7C3FF06B086
:1054A00010BD0000F8B505460E461746234B1B6895
:1054B000234AA2FB03235B0A41F2883202FB03F377
:1054C0001A46013B8AB36C6B14F0450FF8D014F404
:1054D000006FF5D16B6B13F0040F06D16B6B13F0FB
:1054E000010F05D00120A86321E00420A8631EE07D
:1054F0002846FFF760FDB04201D0012017E0C52328
:10550000AB6300212846FFF759FD034610F46040C5
:1055100008D013F4804F0BD113F4004F0BD04FF48D
:10552000805004E01B0C3B8001E04FF00040F8BDD0
:105530004FF40050FBE74FF48030F8E70000002004
:10554000D34D621070B586B004460D46002301931A
:10555000032602964022039204934FF4806305933E
:1055600001A9FFF716FD2A4631462046FFF79AFFAC
:1055700006B070BD0146164B1B68164AA2FB0323FA
:105580005B0A41F2883202FB03F31A46013BE2B1A7
:105590004A6B12F0450FF8D012F4006FF5D14B6B47
:1055A00013F0040F0BD14B6B13F001030AD1486BBE
:1055B00010F040000BD040228A6318467047042048
:1055C000886370470120886370474FF00040704740
:1055D00000000020D34D621010B586B004464FF491
:1055E000D57301930823029340230393002304936C
:1055F0004FF48063059301A9FFF7CBFC2046FFF72A
:10560000B9FF06B010BD000008B50349034801F01A
:1056100081FF034B187008BDF012002060F70008EE
:10562000F41200200020704708B513460A460146D0
:105630000248FEF7C1FB00B1012008BD280D002083
:1056400008B513460A4601460248FEF751FC00B170
:10565000012008BD280D002008B50348FEF74AFFC9
:10566000043818BF012008BD280D002008B50146E8
:105670000148FEF7CCFE08BD280D0020704708B594
:10568000FFF7FCFF08BD08B500F042F908BD08B5FA
:1056900000F048F908BD00B583B001238DF807304C
:1056A00000F024F810B900238DF807309DF80700AA
:1056B00003B05DF804FB000038B5FFF7ECFF0128EC
:1056C00002D00125284638BD04460748FEF784FE6F
:1056D00005460028F6D14FF400610348FEF7AAFE04
:1056E0000028EFD02546EDE7280D002008B54FF43F
:1056F00000610448FDF79CFC08B9012008BD0020AA
:10570000FCE700BF0004024008B5074B01221A70F5
:10571000FFF7A2FF20B9044A137803F0FE031370C9
:10572000014B187808BD00BF0C00002010B584B0F4
:105730000446184B01221A7001F025FF18B9154BC9
:10574000187804B010BDFFF7B7FF88B1114B1B7874
:10575000DBB2012BF3D0104B1B687BB10E4B1B68E7
:10576000002BECD10B4A137843F001031370E6E7EA
:105770002046FFF7C9FF074B1870E7E7074B6C4659
:105780000FCB84E80F000021204601F0D7FF024B29
:105790001860E3E70C000020F812002018F700085A
:1057A00008B5FFF7B1FF08BD38B5054601F0F4FEB6
:1057B000044601F0F1FE001BA84205D2FFF74CFFA2
:1057C0000028F6D1002001E04FF0FF3038BD000086
:1057D00070B584B00C4615461E4647F23050FFF7B0
:1057E000E3FF002829DB324629462046FFF71CFF4D
:1057F00008B1012022E047F23052114B196801A88C
:1058000001F0E4FF019B102B01D0012016E0029B68
:10581000012B01D0012011E001F0BEFE044601F091
:10582000BBFE001B47F22F53984204D8FFF714FF2A
:105830000028F4D102E0012000E0012004B070BD96
:10584000F812002070B584B00C4615461E4647F28B
:105850003050FFF7A9FF002829DB324629462046B1
:10586000FFF7EEFE08B1012022E047F23052114B63
:10587000196801A801F0AAFF019B102B01D001209B
:1058800016E0029B022B01D0012011E001F084FE02
:10589000044601F081FE001B47F22F53984204D8C2
:1058A000FFF7DAFE0028F4D102E0012000E0012039
:1058B00004B070BDF812002030B589B0134B1878D1
:1058C00010F001041BD1154603291CD8DFE801F0B4
:1058D00002040A100C4613E06846FFF7C7FE069B59
:1058E0002B600DE06846FFF7C1FE079B2B8007E0A9
:1058F0006846FFF7BBFE079B5B0A2B6000E00324B2
:10590000204609B030BD0424FAE700BF0C00002097
:1059100008B500220221024B186801F024FF08BDDF
:10592000F812002008B500220121024B186801F08E
:105930001AFF08BDF812002008B5044B03EB8002E3
:10594000526852680344187A904708BD2413002017
:10595000094B1B5C73B910B50446074B03EB80027F
:10596000526812680344187A904710B9024B01221A
:105970001A5510BD002070472413002038B5044C80
:1059800004EB80056D68AD680444207AA84738BDF3
:105990002413002038B5044C04EB80056D68ED68D5
:1059A0000444207AA84738BD2413002010B5044BC6
:1059B00003EB8004646824690344187AA04710BD8F
:1059C000241300204278007840EA02207047C27811
:1059D000837843EA0222437843EA0223007840EACC
:1059E000032070470170090A417070470170C1F3CC
:1059F00007234370C1F307438370090EC1707047DA
:105A0000944632B10A78013102700130BCF1010CC8
:105A1000F8D1704701700130013AFBD170478446DC
:105A20009CF800000CF1010C0B780131C01A013A0E
:105A300001D00028F4D07047034600E00133187805
:105A400008B18842FAD1704730B400252B4601E0F6
:105A500001250133012B15D81A01174CA258002A31
:105A6000F6D00468A242F4D1134A02EB0312546840
:105A700082689442EDD1104A02EB031294684269A5
:105A80009442E6D1022B0AD0A1B90B4A02EB0313D0
:105A90009B89B3F5807F0BD0002030BC70472DB9B7
:105AA000022901D01220F8E70020F6E70020F4E7F1
:105AB0001020F2E71020F0E700130020002000E0A3
:105AC0000130012804D80301034AD358002BF7D131
:105AD000023818BF012070470013002070B4002363
:105AE00000E00133012B13D81A01244CA45802689A
:105AF0009442F6D1214A02EB031254688268944220
:105B0000EFD11E4A02EB0312946842699442E8D135
